:020000040800F2
:1000000020040020C5010008C3150008C905000828
:10001000C1150008AF020008CD1C00080000000058
:10002000000000000000000000000000951B000818
:10003000A503000800000000C51500086D1C00089D
:10004000DF010008DF010008DF010008DF01000810
:10005000DF010008DF010008DF010008DF01000800
:10006000DF010008DF010008DF010008DF010008F0
:10007000DF010008DF010008DF010008DF010008E0
:10008000DF010008DF010008DF010008DF010008D0
:10009000DF010008DF010008DF010008DF010008C0
:1000A000DF010008DF010008DF010008DF010008B0
:1000B000DF010008DF010008DF010008DF010008A0
:1000C000DF010008DF010008DF010008DF01000890
:1000D000DF010008DF010008DF010008DF01000880
:1000E000DF010008DF010008DF010008DF01000870
:1000F000DF010008DF010008DF010008DF01000860
:10010000DF010008DF010008DF010008DF0100084F
:10011000DF010008DF010008DF010008DF0100083F
:10012000DF010008DF010008DF010008DF0100082F
:10013000DF010008DF010008DF010008DF0100081F
:10014000DF010008DF010008DF010008DF0100080F
:10015000DF010008DF010008DF010008DF010008FF
:10016000DF010008DF010008DF010008DF010008EF
:10017000DF010008DF010008DF010008DF010008DF
:10018000DF010008DF010008DF010008DF010008CF
:10019000DF010008DF010008DF010008DF010008BF
:1001A000DF010008DF010008DF010008DFF810D0E0
:1001B00000F04CF80048004779210008AFF30080B8
:1001C000200400200648804706480047FEE7FEE777
:1001D000FEE7FEE7FEE7FEE7FEE7FEE7FEE7FEE7F7
:1001E000711C0008AD0100082DE9F05F05460020F4
:1001F00092469B4688460646814640241BE0284698
:1002000041464746224600F042F853465A46C01A35
:10021000914110D311461846224600F029F82D1AB4
:1002200067EB01084F4622460120002100F020F82C
:1002300017EB00094E41201EA4F10104DFDC484603
:1002400031462A464346BDE8F09F0000064C074D64
:1002500006E0E06840F0010394E807009847103496
:10026000AC42F6D3FFF7A6FFA0330008C033000866
:10027000202A04DB203A00FA02F100207047914066
:10028000C2F1200320FA03F3194390407047202A5B
:1002900004DB203A21FA02F00021704721FA02F330
:1002A000D040C2F120029140084319467047FEE752
:1002B00010B50121CC05204601F0ACF92046BDE87F
:1002C0001040002101F0A6B901460020024A526800
:1002D0000A4200D00120704700B0024030B500242F
:1002E0002A4B19682A4A114019601968026811439B
:1002F0001960596B21F007015963596B426811432A
:1003000059634168002928D001292DD0022930D015
:10031000032933D0C1680A01016909024469240331
:100320008568214315430D43996B0D439D63816996
:10033000D963196C6FF30D011964196CC26911430B
:100340001964818C09045A6C02F040425A645A6C58
:10035000006A02430A435A6430BDC1680A02018A36
:100360000904047D2406DBE7C1680A02018A090446
:10037000D6E7C1684A010169C902D1E7C1684A01EB
:10038000016989024469E403CAE7000000B0024041
:10039000FCE0FCFF0248016841F001010160704788
:1003A00000B00240704701B502E00098401E009086
:1003B00000980028F9D108BD00224FF020431028F2
:1003C0000AD0B0F5807F09D0B0F5805F09D0D3F8AE
:1003D0005801814309D107E0586EFAE7D3F8840049
:1003E000F7E7D3F8A400F4E70122104670470000B5
:1003F000D0E9001211438268C068521E520142EADD
:10040000402001430148016070470000500100A0F6
:1004100070B50468A100A1F1C041D1F84011CE0B24
:10042000F603D0E901121143D0E903231A43114323
:100430004269C36911438269056A11431943426ADB
:100440002943114331434FF02046002C3CD0D6F8CD
:1004500040416FF30E042B4322431343C6F840314F
:1004600002689200A2F1C042C2F84011016871B363
:100470008900A1F1C041D1F8481101F07043816AAF
:100480000A684C68521E641E42EA04148A68521EAE
:1004900044EA02240A8A521E44EA02421A43D6F867
:1004A000483103F07043CC68898A641E2403491ED6
:1004B00044EA01511943C6F8481100688000A0F1D0
:1004C000C040C0F8482170BDC6F84011CEE7FFE734
:1004D000D6F8481101F07041806A02684368521EE4
:1004E0005B1E42EA03138268521E43EA0223C2687B
:1004F000521E43EA0233028A521E43EA0243828AB0
:10050000007E521E43EA0252401E42EA0060084347
:10051000C6F8480170BD000002490A6842EA40007E
:1005200008607047540100A02DE9F0410022012726
:100530004FF0030C07FA02F50B682B40AB422CD1AD
:10054000066853000CFA03F4A64306600E79D0F84F
:1005500000809E4046EA080606600E79012E01D012
:10056000022E12D18668A64386604E79D0F80880A4
:100570009E4046EA080686604668AE434660456887
:100580008E799640B6B235434560C568A543C560CF
:10059000CC799C40C3681C43C460521C102AC9D348
:1005A000BDE8F08110B54B07DB0E9A40C90800EB9F
:1005B0008100016A0F249C40A1430162016A11433A
:1005C000016210BD01837047FEE70000F0B58BB0FB
:1005D0000446E50A04F01F07C4F34516FFF768FE5A
:1005E0004FF4403001900220029004960397059545
:1005F00020040012000E06900C4C6068079000204A
:1006000008904FF4F07009904FF448700A9001A8D8
:10061000FFF764FEFFF7BEFE0220FFF755FE00283D
:10062000FAD0208800F056FC0BB0F0BD040000208A
:10063000F0B5074600240B4D4FF4487608E0202221
:100640002146384600F010F8E8688088204484B2DB
:10065000B44205D2E8688188081980B28842EED297
:10066000F0BD00000400002010B4203AD3B2054AC7
:10067000D2681468D2885A4304EB420210BC00F0DE
:1006800025B80000040000202DE9F04180460D4609
:1006900000240D4E4FF4487708E021464046FFF70E
:1006A000E3FFF0688088204484B26D1CBC4208D20D
:1006B0002A78002A05D0F0688188081980B288421B
:1006C000EBD2BDE8F0810000040000202DE9F043EA
:1006D00000254FF4C8635843DFF87890D9F804C078
:1006E000D9F80C7030E0002326E00C26B4FBF6F6B7
:1006F000F6004FF0800808FA06F832F8156048FA5C
:1007000003F818EA060F01D10C2C08D94FF00108A4
:1007100008FA03F816EA080F07D10C2C05D90CEBE0
:100720004106B9F80240345204E00CEB4106B9F836
:1007300000403452491C5B1CBC889C42D5D8BB8805
:10074000C3F5487319446D1CFB88AB42CBD8BDE898
:10075000F0830000040000202DE9F0435242002302
:10076000022404EB42041B4D2F886E68CD1805EB64
:10077000C508A0EB020C08EB05150CEB451826F894
:10078000187000EB020808EB451526F81570CD1A15
:1007900005EBC50909EB051508EB451826F8187097
:1007A0000CEB451526F8157025469D4208DC5B1CB0
:1007B00004EB4304641CDA4202D1954200DC0025BC
:1007C000954203DD521C04EB4204641C002ACDDD7B
:1007D000BDE8F083040000202DE9F74F0746884666
:1007E00002980321A1EB40060024029D4FF6FF79F9
:1007F00035E09DB109EA4502A8EB050A381B93468E
:100800001FFA8AF180B2012300F074F838195A46B1
:100810001FFA8AF180B2012300F06CF89CB109EA5A
:100820004402A8EB040A781B93461FFA8AF180B2AF
:10083000012300F05FF878195A461FFA8AF180B256
:10084000012300F057F8002E03DA06EB8406B61DEC
:1008500004E0601B06EB80060A366D1E641CAC4289
:10086000C7D9029A03B041463846BDE8F04FFFF7BA
:1008700073BF00002DE9F0478AB015469946DFF8AE
:100880007080B8F80040E60A04F01F07C4F345146E
:1008900001EBC10202EB011100EB4110D8F804108A
:1008A00001EB400AFFF704FD4FF4403000900220B6
:1008B00001900394029704960F200590CDF818A09C
:1008C000C5F548700790CDF8209009956846FFF768
:1008D00005FDFFF75FFD0220FFF7F6FC0028FAD0C8
:1008E000B8F8000000F0F6FA0AB0BDE8F0870000A2
:1008F000040000202DE9F0438BB01446984601EB2C
:10090000C10202EB011100EB41111948426802EBF0
:1009100041050088C60A00F01F07C0F34519FFF71C
:10092000C7FC4FF44030019002200290CDF81090A7
:10093000039705960F20069007950120B8F1000F48
:1009400011D040F21F31089109940A9001A8FFF7D5
:10095000C5FCFFF71FFD0220FFF7B6FC0028FAD008
:100960000BB0BDE8F0830021089109900A94EDE7EF
:10097000040000202DE9F04106460D4617461C46AE
:1009800000233A4629463046FFF7B4FF281981B2C2
:1009900000233A463046FFF7ADFF012322462946A1
:1009A0003046FFF7A7FFF01922462946BDE8F0417F
:1009B00080B20123FFF79EBF2DE9F84F84460F4612
:1009C0000026A2EB0C00002801DCACEB020000B218
:1009D000D91B002900DCF91A09B20FFA8CF43DB2D8
:1009E0004FF0FF3A624503D34FF00108C14601E0E2
:1009F000D046D146BB4203D34FF0010AD34600E0B4
:100A0000D346884209DB4FF00008C34600EBD072A2
:100A1000521013B20091074622E04FF00009CA4677
:100A200001EBD172521013B200900F4618E0294624
:100A3000204600F0C9FD0098184403B2BB4207DB12
:100A4000D81B03B204EB080004B205EB0A0005B2A0
:100A500004EB090004B205EB0B0005B2761C36B2BC
:100A6000BE42E4DDBDE8F88F2DE9FC5F012140F2D4
:100A7000FF1000F0C1FD4FF00408CDF80080022007
:100A80008DF805008DF8040000208DF806008DF823
:100A900007006946AA48FFF747FD0E220221A84831
:100AA000FFF780FD4FF00809CDF800906946A44893
:100AB000FFF73AFD0E220321A148FFF773FD4FF423
:100AC000807ACDF800A069469D48FFF72DFD0E22E3
:100AD00008219B48FFF766FD012400946946994868
:100AE000FFF722FD092200219648FFF75BFD4FF436
:100AF000006BCDF800B069469348FFF715FD0E2254
:100B00000B219148FFF74EFD2003009069468E4867
:100B1000FFF70AFD0E220C218B48FFF743FD022050
:100B2000009069468748FFF7FFFC092201218548AC
:100B3000FFF738FD4025009569468448FFF7F4FC2F
:100B40000E2206218148FFF72DFD202000906946E6
:100B50007F48FFF7E9FC0E2205217D48FFF722FDC3
:100B6000009569467A48FFF7DFFC0E220621784897
:100B7000FFF718FD6003009069467148FFF7D4FC49
:100B80000E220D216E48FFF70DFDA6020096694664
:100B90006E48FFF7C9FC09220A216C48FFF702FDE5
:100BA000E003009069466648FFF7BEFC0E220F2165
:100BB0006348FFF7F7FC009469466648FFF7B4FC0A
:100BC0000E2200216348FFF7EDFC8027009769465D
:100BD0006148FFF7A9FC0E2207215F48FFF7E2FCFE
:100BE000CDF8008069465B48FFF79EFC0E2202218B
:100BF0005848FFF7D7FC4FF01008CDF80080694641
:100C00005348FFF791FC0E2204215148FFF7CAFC1C
:100C10002003009069464D48FFF786FC0E220C2108
:100C20004A48FFF7BFFC00954C4D69462846FFF740
:100C30007BFC0E2206212846FFF7B4FCCDF800B05D
:100C400069464248FFF770FC0E220B213F48FFF730
:100C5000A9FCCDF8008069463E48FFF765FC0E22EE
:100C600004213C48FFF79EFCCDF8009069463648C9
:100C7000FFF75AFC0E2203213348FFF793FCCDF80F
:100C800000A069462F48FFF74FFC0E2208212D488F
:100C9000FFF788FC4FF40079CDF8009069462948A9
:100CA000FFF742FC0E2209212648FFF77BFC009744
:100CB00069462648FFF738FC0E2207212348FFF734
:100CC00071FC009669462348FFF72EFC0E220A218C
:100CD0002048FFF767FCCDF8009069461D48FFF7F4
:100CE00023FC0E2209211B48FFF75CFC00961C4EDA
:100CF00069463046FFF718FC0E220A213046FFF7FE
:100D000051FCCDF8008002208DF805008DF80440DC
:100D100000208DF806008DF8074069462846FFF749
:100D200003FC009769462846FFF7FEFB1021284682
:100D3000FFF748FC80212846FFF744FCBDE8FC9FF4
:100D4000001C024000040240000002400018024063
:100D5000001002400020024000080240000C024047
:100D6000001402400148C0687047000004000020E1
:100D700010B590B00121880600F068FC0121C8057B
:100D800000F03AFCFFF770FE00F070FE00240194C2
:100D90000294039404940D940E940F94042207215A
:100DA0004FF4C07000F08CFC4FF4803000F078FC01
:100DB000012000F07FFC3D2000F056FC0028FAD016
:100DC000059406942E2007901720089040F24E308C
:100DD000099040F2F7100A9040F262300B9040F216
:100DE0000D200C9001A800F037FB10B010BD0000E2
:100DF00030B591B02F20019040F24E300290182073
:100E0000039040F2F710049003240594FF2006900D
:100E100000200790089009900A904FF480600B9092
:100E200005200C9040F243600E90C01E0F904FF4CE
:100E3000F07010904FF050400D90144D01A92846CD
:100E400000F06CFB059412490D9161020B91072192
:100E50000C910E4C01A98034204600F05FFB01206C
:100E600000F0A8FB0121284600F04CFB01212046A0
:100E700000F048FB012000F09DFB064800F012F84E
:100E8000012000F0D9FA11B030BD000084680140A3
:100E900000B80BD014000020014A10805180704728
:100EA000040000200149C8607047000004000020D1
:100EB0000649002804D00648486001208860704731
:100EC0004FF05040486000208860704704000020C8
:100ED00000B80BD0014908807047000004000020D2
:100EE00010B509498968002908D00146074800F073
:100EF00007FBBDE81040012000F05CBB0146034841
:100F0000803800F0FDFAF4E7040000200469014095
:100F10002DE9F04F99B0D74D2878401C287001205A
:100F2000FFF7C6FFFF20FFF7DBFF4FF40046304618
:100F3000FFF74CFB4FF6FF7431462046FFF7ACFF3E
:100F4000CD48FFF7AFFFFFF70DFFC088CBA1FFF73C
:100F50009BFBFFF707FFC088CEA104EA4000FFF724
:100F600093FBFFF7FFFEC088D1A100EB400080B2E9
:100F7000FFF78AFBFFF7F6FEC088D6A104EA8000DF
:100F8000FFF782FBFFF7EEFEC088DAA100EB8000DE
:100F900080B2FFF779FBFFF7E5FEC088E2A100EB26
:100FA000400004EA4000FFF76FFB2A78E7A168469B
:100FB00000F08EFEFFF7D6FEC088C0EBC00080B206
:100FC000FFF736FBFFF7CEFEC0886946C0EBC000D6
:100FD00080B2FFF759FB48F21F0A5046FFF77AFF2D
:100FE000FFF7C0FEC08804EAC000FFF721FBFFF74F
:100FF000B9FEC088DEA104EAC000FFF745FB4FF44C
:101000007C4731463846FFF747FFFA2340F2EE2887
:10101000424619463220FFF7CFFC4FF496752B4617
:10102000424629463220FFF7C7FC48F2E0383146F5
:101030004046FFF731FF4FF4C8794B464A46FA2144
:101040002846FFF7B9FC68004B460246FA21FFF735
:10105000B3FC6FF07F4B5846FFF7A5F93146304699
:10106000FFF71AFF4FF48C734FF44872C821002029
:10107000FFF700FC5046FFF72DFFFFF773FEC08817
:1010800004EAC000FFF7D4FAFFF76CFEC088BBA1EA
:1010900004EAC000FFF7F8FA31463846FFF7FCFED5
:1010A000C8226423FA211046FFF764FC314640460B
:1010B000FFF7F2FE4FF4AF793223C822FA214846F7
:1010C000FFF758FC31465046FFF7E6FEC8233222B0
:1010D00049461846FFF74EFC5846FFF764F931467B
:1010E0003046FFF7D9FE4FF48C734FF44872C82195
:1010F0000020FFF7BFFB5046FFF7ECFEFFF732FE84
:10110000C08804EAC000FFF793FAFFF72BFEC088FF
:101110009DA104EAC000FFF7B7FA31463846FFF751
:10112000BBFEC8226423FA211046FFF7A3FB314619
:101130004046FFF7B1FE3223C822FA214846FFF7A6
:1011400099FB31465046FFF7A7FEC8233222494695
:101150001846FFF78FFB5846FFF725F93146304612
:10116000FFF79AFE4FF48C734FF44872C8210020A9
:10117000FFF780FB5046FFF7ADFEFFF7F3FDC08899
:1011800004EAC000FFF754FAFFF7ECFDC08882A123
:1011900004EAC000FFF778FA39463846FFF77CFECC
:1011A00032224946C820FFF7D7FA41464046FFF7AA
:1011B00073FE4B2249464846FFF7CEFA5846FFF7E2
:1011C000F2F831463046FFF767FE4FF48C734FF468
:1011D0004872C8210020FFF74DFB5046FFF77AFE0A
:1011E000FFF7C0FDC08804EAC000FFF721FAFFF74F
:1011F000B9FDC0886CA104EAC000FFF745FA31468A
:101200003846FFF749FE322249462846FFF7E4FAFE
:1012100031464046FFF740FE4B2249464FF4E1700D
:10122000FFF7DAFA5846FFF7BEF831463046FFF7C7
:1012300033FE4FF48C734FF44872C8210020FFF73F
:1012400019FBFFF78FFDC08804EAC000FFF7F0F933
:101250005846FFF7A8F831463046FFF71DFE4FF419
:101260008C734FF44872C8210020FFF703FB19B0BC
:10127000BDE8F08F00000020140000204248203517
:101280002E3020696E6368204C4344207061726187
:101290003A000000496D616765207265736F6C7577
:1012A00074696F6E3A383030783438302070780096
:1012B000546F756368207061643A3520706F696E91
:1012C0007420746F75636820737570706F727465C5
:1012D000640000005573652053544D33322D4C5437
:1012E000444320646972656374656420647269763E
:1012F00065722C006E6F2065787465726E206C6369
:101300006420647269766572206E65656465642C1C
:101310005247423838382C32346269747320646121
:101320007461206275730000546F7563682070618A
:1013300064207573652049494320746F20636F6D85
:101340006D756E69636174650000000044697370B7
:101350006C61792076616C75652064656D6F3A20EB
:1013600074657374436F756E74203D20256420008E
:1013700044726177206C696E653A0000447261774F
:1013800020526563743A0000447261772046756CA0
:101390006C20526563743A0044726177206369720D
:1013A000636C653A00000000447261772066756CDA
:1013B0006C20636972636C653A0000002DE9FC41A2
:1013C0000121802000F018F94FF48064009401207E
:1013D0008DF8040000218DF806108DF807008DF8B7
:1013E00005100C4F69463846FFF79EF866000096D8
:1013F00069463846FFF798F8A500009569463846D3
:10140000FFF792F803481830048006800580BDE895
:10141000FC810000001C02400649002804D0086836
:1014200040F0010008607047086820F00100086083
:1014300070470000186801400649002804D0086879
:1014400040F4803008607047086820F480300860FD
:10145000704700001868014030B5264A13682649D5
:101460000B401360038A1B04146845692C431C431A
:101470001460121D13680B401360038B1B04146867
:10148000C5692C431C431460121D13680B40136084
:10149000038C1B041468456A2C431C431460121D02
:1014A00013680B401360018D09041368C46A234359
:1014B0000B431360111D0A68104B1A400A60D0E9F3
:1014C00000231A43D0E9023423431A430B681A431A
:1014D0000A60416B0A02018E0B04064924310C6834
:1014E00004F07F440C600C68806B134304431C437E
:1014F0000C6030BD0868014000F800F08F88FE0FD6
:1015000041617047002904D0016841F00101016088
:101510007047016821F001010160704770B58A8849
:101520001204436803F4704343600B681343436041
:101530008A891204836803F4704383608B681343C1
:101540008360026922F0070202610A690261CA69C6
:1015500013020A8C120491F82440240685690025A0
:1015600085618E6922431E4316438661426922F0DB
:10157000FF0242614A694261C26940F207739A43BD
:10158000C261D1E90A231A43C261826A85620A6B89
:1015900082620A8F1204C36A03F0E023C3624B6BBA
:1015A0001343C362026B6FF30A020263C96B0163E8
:1015B00070BD0000014908607047000024680140C8
:1015C000FEE7704770470000B0F5487F10D800294B
:1015D0000EDBB1F5F07F0BDC01EBC10202EB011178
:1015E00000EB411003494A6802EB40000988018082
:1015F0007047000004000020054A002903D011684C
:101600000143116070471168814311607047000009
:1016100030380240054A002903D0116801431160A7
:101620007047116881431160704700001038024014
:10163000054A002903D01168014311607047116801
:10164000814311607047000038380240054A002984
:1016500003D0116801431160704711688143116024
:101660007047000044380240024600205109012919
:101670000BD002290DD00949096802F01F0201238D
:1016800093400B4200D00120704704497439096827
:10169000F3E70249091F0968EFE7000074380240C8
:1016A000034A116821F44031014311607047000082
:1016B0008C3802400149086770470000000047422B
:1016C000800140EA0160024940EA02700860704708
:1016D000883802402DE9FC5F0121FC20FFF78CFFD8
:1016E00002208DF804008DF8050000208DF806001A
:1016F0008DF80700012000906946D648FEF714FFD8
:101700000C220021D348FEF74DFF022000906946CD
:10171000D048FEF709FF0C220121CE48FEF742FF18
:10172000042600966946CB48FEF7FEFE0C220221F5
:10173000C848FEF737FF082000906946C548FEF705
:10174000F3FE0C220321C348FEF72CFF102700975D
:101750006946C048FEF7E8FE0C220421BD48FEF7AA
:1017600021FF4FF02008CDF800806946B948FEF708
:10177000DBFE0C220521B748FEF714FF4FF4805919
:10178000CDF800906946B348FEF7CEFE0C22114614
:10179000B048FEF707FF4FF4005ACDF800A06946A5
:1017A000AC48FEF7C1FE0C220D21AA48FEF7FAFE56
:1017B000350300956946A748FEF7B6FE0C220E21B8
:1017C000A448FEF7EFFE6C0000946946A148FEF7BE
:1017D000ABFE0C220F219F48FEF7E4FE0120009093
:1017E00069469D48FEF7A0FE0C2200219A48FEF7AC
:1017F000D9FE0220009069469748FEF795FE0C221C
:1018000001219548FEF7CEFE009669469248FEF704
:101810008BFE0C2202219048FEF7C4FE009569461B
:101820008E48FEF781FE0C220E218C48FEF7BAFE90
:10183000009469468948FEF777FE0C220F218748FD
:10184000FEF7B0FE0120009069468448FEF76CFE6A
:101850000C2200218148FEF7A5FE02200090694677
:101860007E48FEF761FE0C2201217C48FEF79AFEBD
:101870008020009069467A48FEF756FE0C22072128
:101880007748FEF78FFEE611009669467448FEF72A
:101890004BFE0C2208217248FEF784FEA011009036
:1018A00069466F48FEF740FE0C2209216C48FEF79E
:1018B00079FE4FF4806BCDF800B069466848FEF7BA
:1018C00033FE0C220A216648FEF76CFE20110090C0
:1018D00069466348FEF728FE0C220B216048FEF79C
:1018E00061FECDF8009069465D48FEF71DFE0C22B2
:1018F00011465B48FEF756FECDF800A069465848F1
:10190000FEF712FE0C220D215548FEF74BFE009506
:1019100069465348FEF708FE0C220E215048FEF798
:1019200041FE009469464E48FEF7FEFD0C220F2151
:101930004B48FEF737FE009669464848FEF7F4FD2F
:101940000C2208214548FEF72DFEA01100906946A3
:101950004248FEF7E9FD0C2209214048FEF722FE2D
:10196000CDF800B069463D48FEF7DEFD0C220A21A5
:101970003A48FEF717FE402000903A4D6946284647
:10198000FEF7D2FD0C2206212846FEF70BFE00973B
:1019900069463148FEF7C8FD0C2204212E48FEF7A7
:1019A00001FECDF8008069462B48FEF7BDFD0C22F4
:1019B00005212948FEF7F6FD012000902A4F6946CF
:1019C0003846FEF7B1FD0C2200213846FEF7EAFD4D
:1019D0002111009169461F48FEF7A6FD0C220B213C
:1019E0001C48FEF7DFFD009469461B48FEF79CFD8E
:1019F0000C220F211848FEF7D5FD009669461648BF
:101A0000FEF792FD0C2208211348FEF7CBFD802043
:101A1000009069462846FEF787FD0C2207212846DC
:101A2000FEF7C0FD0220009069460D48FEF77CFDE0
:101A30000C2201210A48FEF7B5FD012000906946FD
:101A40000748FEF771FD0C2200210548FEF7AAFDAC
:101A5000BDE8FC9F0014024000180240000C024048
:101A600000100240001C02400008024000B593B084
:101A7000FFF730FE01210846FFF7DAFD0220019052
:101A80000721029104220392049105900690079089
:101A900001200890099008200A9010200B90402007
:101AA0000C904FF4C0700D9000200E9051020F91D9
:101AB00010908800119001A8129008A8FEF7A8FCC9
:101AC00000F002F813B000BD2DE9FF41012500959B
:101AD0000826019602950024039420210120FEF798
:101AE0006BFC0028F9D16846FEF782FC0A2000F062
:101AF00041F80220009001960295039420210120D4
:101B0000FEF75AFC0028F9D16846FEF771FC032065
:101B10000090019604270297039420210120FEF7EC
:101B20004BFC0028F9D16846FEF762FC2021012019
:101B3000FEF742FC0028F9D16846FEF759FC40F256
:101B40003120009701960295039020210120FEF795
:101B500033FC0028F9D16846FEF74AFC40F2AB207E
:101B6000FEF7DAFC20210120FEF726FC0028F9D13F
:101B7000BDE8FF8101B581B0054901984843009057
:101B800002E00098401E009000980028F9D10CBD9A
:101B9000A0860100704700001CB500210191009152
:101BA0002E4A106840F4803010604FF4A043106853
:101BB00000F4003000900198401C0190009810B98A
:101BC00001989842F3D11068800302D5012000905B
:101BD00000E00091009801283FD120484030016882
:101BE00041F0805101601E49086840F4404008609F
:101BF0001A48083003680360036843F40043036035
:101C0000036843F4A0530360041F164B236013685A
:101C100043F08073136013689B01FCD50A6842F49B
:101C200080320A604A68D203FCD50A6842F4003266
:101C30000A604A689203FCD50B4A40F205711160B4
:101C4000016821F003010160016841F002010160B7
:101C50000168C1F381010229FAD11CBD003802409C
:101C600000700040195A4007003C024070470000D5
:101C700010B51248016841F4700101601048016814
:101C800041F0010101600E4A002108321160026832
:101C90000C4B1A400260031D0B4A1A60026822F4C2
:101CA0008022026006480C300160FFF775FF03498F
:101CB0004FF000608039086010BD000088ED00E042
:101CC00000380240FFFFF6FE10300024FEE700005F
:101CD0000FB4084B10B504A902AA039800F01CF831
:101CE000044602A9002000F042FA204610BC5DF82C
:101CF00014FB00006F21000802E008C8121F08C191
:101D0000002AFAD170477047002001E001C1121F7C
:101D1000002AFBD1704700002DE9FF4F8DB00F4620
:101D20000546002606E025280BD0DDE90F12904776
:101D30006D1C761C28780028F5D111B03046BDE81E
:101D4000F08F0024A246A1460122E94900E00443A5
:101D500015F8013F203B02FA03F00842F7D128783A
:101D60002A2810D06FF02F022878A0F1300109291D
:101D700014D80AEB8A0102EB410144F0020400EBA3
:101D8000010A6D1CF0E701CF5FEA000A03D544F4B5
:101D90000054CAF1000A44F002046D1C28782E2871
:101DA00017D115F8010F44F004042A280ED06FF063
:101DB0002F022878A0F1300109290AD809EB8901FE
:101DC00002EB410100EB01096D1CF2E757F8049B9F
:101DD0006D1C28786C280FD006DC4C2817D068289A
:101DE0000DD06A2814D104E0742810D07A280FD1BD
:101DF0000DE044F400140AE044F4801401E044F4DB
:101E000040146978814202D104F580146D1C6D1C68
:101E100028786E281ED00CDC632830D004DC002823
:101E20008BD0582811D19FE0642867D069280CD145
:101E300064E073282DD004DC6F2872D0702804D1A0
:101E400094E075286ED078286DD0DDE90F129047A8
:101E5000761C4BE1C4F30250022806D0032809D0B7
:101E6000042801CF09D0066040E101CFF117C0E995
:101E700000613BE101CF068038E1067036E117F8DA
:101E8000040B8DF8000000208DF80100EB460120C6
:101E900003E057F804BB4FF0FF3061074FF000013B
:101EA00002D40DE008F10101884649450FDA80456A
:101EB000F8DB1BF808100029F4D108E008F1010153
:101EC00088468142FADB1BF808100029F6D1DDE9CB
:101ED0000F23AAEB08008146214600F031F9304477
:101EE00000EB080604E0DDE90F121BF8010B904738
:101EF000B8F10108F7D221464846F2E00A21C4F3BE
:101F000002524FF0000B0891022A04D001CFC117F2
:101F1000032A09D00AE0FF1D27F00707F7E80201AE
:101F200008E02CE01EE01FE000B2C117042A01D136
:101F300040B2C117021E71F1000206DA0023D0EB95
:101F4000030063EB01012D2202E0220504D52B22C0
:101F50008DF82420012203E0E20701D02022F7E7D8
:101F6000904653E00A210BE0102109E010214FF0C8
:101F7000000B44F004044FF00809089103E0082125
:101F80004FF0000B0891C4F30252022A04D001CF93
:101F90000021032A06D006E0FF1D27F00707F7E817
:101FA000020103E080B2042A00D1C0B24FF0000861
:101FB00022072BD52A78702A07D0DDF820C08CF0B4
:101FC000100C5CEA0B0C05D00EE040228DF82420AA
:101FD000012208E050EA010306D030238DF82430B6
:101FE0008DF8252002229046089B83F0080353EACF
:101FF0000B030BD150EA010201D1620706D5302252
:102000008DF824204FF00108A9F101092A78582AF7
:1020100004D038A20B9208AA0A920BE03AA2F9E780
:102020005B46089AFEF7E0F80B9B9B5C0A9A521EEF
:102030000A92137050EA0102F2D10A98ADEB000047
:1020400000F1200B600702D524F4803401E04FF04A
:102050000109D94502DDA9EB0B0000E0002000EBEF
:102060000B0141440890AAEB010AE00306D4DDE924
:102070000F232146504600F063F806444FF0000954
:1020800008E009A911F80900DDE90F12904709F1EC
:102090000109761CC145F4DBE0030CD5DDE90F2313
:1020A0002146504600F04CF8064404E0DDE90F12EA
:1020B00030209047761C0899481E08900029F5DCCE
:1020C00008E00A980A990078491C0A91DDE90F1284
:1020D0009047761CBBF10001ABF1010BF1DC21460E
:1020E0005046DDE90F2300F019F806446D1C21E687
:1020F00009280100303132333435363738396162DE
:1021000063646566000000003031323334353637A1
:102110003839414243444546000000002DE9F04172
:10212000044600251E461746880404D405E03946B7
:102130002020B0476D1C641EF9D52846BDE8F0810B
:102140002DE9F041044600251E469046C80301D5FE
:10215000302700E02027880404D505E041463846B2
:10216000B0476D1C641EF9D52846BDE8F0810A68A9
:10217000531C0B6010707047FFF720F9FEF7F8FD55
:10218000FEF736FE0120FFF747F90020FEF790FE2C
:102190004FF400442046FEF719FA0120FEF788FEAE
:1021A000FF20FEF79DFE2046FEF710FA074861115A
:1021B0000180C114018005498014891C0880401EDB
:1021C000FEF7F1F8FEF7A4FEFCE70000181C024041
:1021D00000000000000000000000000000000000FF
:1021E00000000000000000000000000000000000EF
:1021F00000000000000000000000000000000000DF
:102200000000800180018001800180018001800147
:1022100080018001800180018001800100000000B8
:1022200080018001000000000000000000000000AC
:1022300000000000CC00CC00CC00CC00CC00CC00D6
:10224000000000000000000000000000000000008E
:10225000000000000000000000000000000000007E
:10226000000000000000000000000000600C600C96
:10227000600C30063006FE1FFE1F300638071803BC
:10228000FE1FFE1F180318038C018C018C01000037
:1022900000008000E003F80F9C0E8C1C8C188C0052
:1022A0009800F801E007800E801C8C188C189C1890
:1022B000B80CF00FE0038000800000000000000078
:1022C0000000000000000E181B0C110C1106110676
:1022D000110311039B018E01C038C06C604460443F
:1022E000304430441844186C0C38000000000000E2
:1022F0000000E001F0033807180618063003F0016B
:10230000F000F8009C310E33061E061C061C063F2A
:10231000FC73F0210000000000000000000000003D
:10232000000000000C000C000C000C000C000C0065
:10233000000000000000000000000000000000009D
:10234000000000000000000000000000000000008D
:102350000000000200038001C000C00060006000B7
:1023600030003000300030003000300030003000ED
:1023700060006000C000C000800100030002000097
:10238000000020006000C000800180010003000305
:10239000000600060006000600060006000600060D
:1023A0000003000380018001C000600020000000E5
:1023B000000000000000000000000000C000C0009D
:1023C000D806F807E00130033807000000000000DD
:1023D00000000000000000000000000000000000FD
:1023E00000000000000000000000000080018001EB
:1023F000800180018001FC3FFC3F80018001800161
:1024000080018001000000000000000000000000CA
:1024100000000000000000000000000000000000BC
:1024200000000000000000000000000000000000AC
:102430000000800180010001000180000000000018
:10244000000000000000000000000000000000008C
:102450000000000000000000E007E00700000000AE
:10246000000000000000000000000000000000006C
:10247000000000000000000000000000000000005C
:10248000000000000000000000000000000000004C
:102490000000C000C00000000000000000000000BC
:1024A0000000000C000C00060006000600030003FC
:1024B00000038003800180018001C000C000C000D3
:1024C000600060000000000000000000000000004C
:1024D0000000E003F007380E180C0C180C180C184C
:1024E0000C180C180C180C180C180C18180C380EAA
:1024F000F007E00300000000000000000000000002
:10250000000000018001C001F001980188018001F4
:1025100080018001800180018001800180018001B3
:1025200080018001000000000000000000000000A9
:102530000000E003F80F180C0C180C180018001815
:10254000000C000600038001C0006000300018008D
:10255000FC1FFC1F00000000000000000000000045
:102560000000E001F807180E0C0C0C0C000C000623
:10257000C003C007000C001800180C180C18180C29
:10258000F807E00300000000000000000000000069
:102590000000000C000E000F000F800DC00C600C3E
:1025A000600C300C180C0C0CFC3FFC3F000C000CB9
:1025B000000C000C00000000000000000000000003
:1025C0000000F80FF80F180018000C00EC03FC07CF
:1025D0001C0E001C0018001800180C181C0C180EFB
:1025E000F807E00300000000000000000000000009
:1025F0000000C007F00F381C181818000C00CC039E
:10260000EC0F3C0E1C1C0C180C180C18181C380E67
:10261000F007E003000000000000000000000000E0
:102620000000FC1FFC1F000C0006000600038003D6
:102630008001C001C000E000600060007000300058
:10264000300030000000000000000000000000002A
:102650000000E003F007380E180C180C180C3806B0
:10266000F007F007180C0C180C180C180C18380C84
:10267000F80FE00300000000000000000000000070
:102680000000E003F007380E1C0C0C180C180C1896
:102690001C1C381EF81BE0190018000C000C1C0E46
:1026A000F807F0010000000000000000000000003A
:1026B0000000000000000000000000008001800118
:1026C000000000000000000000000000000000000A
:1026D00080018001000000000000000000000000F8
:1026E00000000000000000000000000080018001E8
:1026F00000000000000000000000000000000000DA
:102700008001800100010001800000000000000045
:1027100000000000000000000000000000000000B9
:102720000010001C800FE003F8001800F800E00320
:10273000800F001C001000000000000000000000DE
:102740000000000000000000000000000000000089
:10275000F81F000000000000F81F0000000000004B
:102760000000000000000000000000000000000069
:102770000000000000000000000000000000000059
:1027800008003800F001C007001F0018001FC00734
:10279000F001380008000000000000000000000008
:1027A0000000E003F80F180C0C180C180018000CAF
:1027B000000600038001C000C000C000000000004F
:1027C000C000C00000000000000000000000000089
:1027D00000000000E00718180420C229224A114412
:1027E00009440944094409221113E20C024004205F
:1027F0001818E007000000000000000000000000C2
:10280000000080038003C006C006C006600C600C98
:10281000301830183018F83FF83F1C700C600C600E
:1028200006C006C00000000000000000000000001C
:102830000000FC03FC0F0C0C0C180C180C180C0CF2
:10284000FC07FC0F0C180C300C300C300C300C1842
:10285000FC1FFC070000000000000000000000005A
:102860000000C007F01F38381C300C7006600600EE
:102870000600060006000600060006600C701C300C
:10288000F01FE00700000000000000000000000052
:102890000000FE03FE0F060E06180618063006306E
:1028A0000630063006300630063006180618060ECA
:1028B000FE0FFE030000000000000000000000000A
:1028C0000000FC3FFC3F0C000C000C000C000C0056
:1028D000FC1FFC1F0C000C000C000C000C000C007A
:1028E000FC3FFC3F00000000000000000000000072
:1028F0000000F83FF83F18001800180018001800F2
:10290000F81FF81F18001800180018001800180009
:102910001800180000000000000000000000000087
:102920000000E00FF83F3C780E6006E007C00300AF
:10293000030003FE03FE03C007C006C00EC03CF048
:10294000F83FE00F00000000000000000000000061
:1029500000000C300C300C300C300C300C300C30D3
:10296000FC3FFC3F0C300C300C300C300C300C3089
:102970000C300C30000000000000000000000000DF
:1029800000008001800180018001800180018001C0
:10299000800180018001800180018001800180012F
:1029A0008001800100000000000000000000000025
:1029B00000000006000600060006000600060006ED
:1029C000000600060006000600061806180638076E
:1029D000F003E00100000000000000000000000023
:1029E000000006300618060C060606038601C6001F
:1029F00066007600DE008E0106030606060C061849
:102A0000063006600000000000000000000000002A
:102A1000000018001800180018001800180018000E
:102A200018001800180018001800180018001800E6
:102A3000F81FF81F00000000000000000000000068
:102A400000000EE01EF01EF01EF036D836D836D844
:102A500036D866CC66CC66CCC6C6C6C6C6C6C6C6A2
:102A600086C386C3000000000000000000000000D4
:102A700000000C301C303C303C306C306C30CC30C2
:102A8000CC308C310C330C330C360C360C3C0C3CFB
:102A90000C380C30000000000000000000000000B6
:102AA0000000E007F81F1C380E70066003C003C06A
:102AB00003C003C003C003C003C006600E701C380F
:102AC000F81FE00700000000000000000000000008
:102AD0000000FC0FFC1F0C380C300C300C300C309C
:102AE0000C18FC1FFC070C000C000C000C000C0068
:102AF0000C000C00000000000000000000000000BE
:102B00000000E007F81F1C380E70066003E003C0E9
:102B100003C003C003C003C007E006630E3F1C3CB4
:102B2000F83FE0F700C000000000000000000000D7
:102B30000000FE0FFE1F063806300630063006384D
:102B4000FE1FFE0706030606060C061806180630CA
:102B500006300660000000000000000000000000D9
:102B60000000E003F80F1C0C0C180C180C001C00E3
:102B7000F803E00F001E0038063006300E301C1C33
:102B8000F80FE00700000000000000000000000057
:102B90000000FE7FFE7F80018001800180018001B6
:102BA000800180018001800180018001800180011D
:102BB0008001800100000000000000000000000013
:102BC00000000C300C300C300C300C300C300C3061
:102BD0000C300C300C300C300C300C300C30181821
:102BE000F81FE007000000000000000000000000E7
:102BF000000003600630063006300C180C180C1864
:102C0000180C180C380E300630067007600360038D
:102C1000C001C00100000000000000000000000032
:102C200000000360C361C361C3616633663366330A
:102C30006633663366336C1B6C1B6C1B2C1A3C1E94
:102C4000380E380E000000000000000000000000F8
:102C500000000FE00C7018303018700C600EC007C8
:102C600080038003C003E006700C301C18180C3081
:102C70000E6007E0000000000000000000000000FF
:102C8000000003C006600C301C383818300C600699
:102C9000E007C00380018001800180018001800184
:102CA0008001800100000000000000000000000022
:102CB0000000FC7FFC7F006000300018000C000664
:102CC00000038001C0006000300018000C00060006
:102CD000FE7FFE7F000000000000000000000000FA
:102CE0000000E003E003600060006000600060003E
:102CF00060006000600060006000600060006000D4
:102D000060006000600060006000E003E00300001D
:102D1000000030003000600060006000C000C000B3
:102D2000C000C00180018001800100030003000396
:102D30000006000600000000000000000000000087
:102D40000000E003E00300030003000300030003AE
:102D5000000300030003000300030003000300035B
:102D600000030003000300030003E003E00300008E
:102D700000000000C001C001600360036003300672
:102D80003006180C180C00000000000000000000C5
:102D90000000000000000000000000000000000033
:102DA0000000000000000000000000000000000023
:102DB0000000000000000000000000000000000013
:102DC0000000FFFFFFFF0000000000000000000007
:102DD00000000C000C000C000C000C000C000000AB
:102DE00000000000000000000000000000000000E3
:102DF00000000000000000000000000000000000D3
:102E0000000000000000000000000000F003F807D0
:102E10001C0C0C0C000FF00FF80C0C0C0C0C1C0F05
:102E2000F80FF01800000000000000000000000093
:102E3000000018001800180018001800D803F80F38
:102E4000380C181818181818181818181818380CDA
:102E5000F80FD80300000000000000000000000090
:102E6000000000000000000000000000C003F007A8
:102E7000300E180C1800180018001800180C300E2E
:102E8000F007C00300000000000000000000000088
:102E9000000000180018001800180018C01BF01FD0
:102EA000301C181818181818181818181818301C6A
:102EB000F01FC01B00000000000000000000000028
:102EC000000000000000000000000000C003F00F40
:102ED000300C1818F81FF81F180018003818301C8C
:102EE000F00FC0070000000000000000000000001C
:102EF0000000800FC00FC000C000C000F007F00746
:102F0000C000C000C000C000C000C000C000C000C1
:102F1000C000C00000000000000000000000000031
:102F2000000000000000000000000000E00DF80FAD
:102F3000180E0C0C0C0C0C0C0C0C0C0C0C0C180EB5
:102F4000F80FE00D000C0C0C1C06F807F001000057
:102F5000000018001800180018001800D807F80F13
:102F6000381C1818181818181818181818181818BD
:102F700018181818000000000000000000000000F1
:102F80000000C000C000000000000000C000C00041
:102F9000C000C000C000C000C000C000C000C00031
:102FA000C000C000000000000000000000000000A1
:102FB0000000C000C000000000000000C000C00011
:102FC000C000C000C000C000C000C000C000C00001
:102FD000C000C000C000C000C000F80078000000C1
:102FE00000000C000C000C000C000C000C0C0C067B
:102FF0000C038C01CC006C00FC009C018C030C03C6
:103000000C060C0C00000000000000000000000096
:103010000000C000C000C000C000C000C000C00070
:10302000C000C000C000C000C000C000C000C000A0
:10303000C000C00000000000000000000000000010
:103040000000000000000000000000007C3CFF7E4B
:10305000C7E383C183C183C183C183C183C183C1EA
:1030600083C183C1000000000000000000000000D8
:103070000000000000000000000000009807F80FAA
:10308000381C18181818181818181818181818189C
:1030900018181818000000000000000000000000D0
:1030A000000000000000000000000000C003F00F5E
:1030B000300C181818181818181818181818300C78
:1030C000F00FC0030000000000000000000000003E
:1030D000000000000000000000000000D803F80F0E
:1030E000380C181818181818181818181818380C38
:1030F000F80FD80318001800180018001800000076
:10310000000000000000000000000000C01BF01FD5
:10311000301C181818181818181818181818301CF7
:10312000F01FC01B0018001800180018001800003D
:10313000000000000000000000000000B007F003E5
:1031400070003000300030003000300030003000BF
:10315000300030000000000000000000000000000F
:10316000000000000000000000000000E003F00389
:10317000380E180C3800F003C007000C180C380E7D
:10318000F007E00300000000000000000000000065
:10319000000000008000C000C000C000F007F00781
:1031A000C000C000C000C000C000C000C000C0001F
:1031B000C0078007000000000000000000000000C1
:1031C000000000000000000000000000181818189F
:1031D0001818181818181818181818181818381C4B
:1031E000F01FE019000000000000000000000000D7
:1031F0000000000000000000000000000C18180C87
:10320000180C180C300630063006600360036003AB
:10321000C001C0010000000000000000000000002C
:10322000000000000000000000000000C141C1419A
:10323000C3616363636363633636363636361C1C9C
:103240001C1C1C1C0000000000000000000000000E
:103250000000000000000000000000001C38381CC6
:10326000300C600660036003600360036006300C8E
:10327000381C1C38000000000000000000000000A6
:1032800000000000000000000000000018303018AE
:1032900030187018600C600CE00CC006C00680038B
:1032A0008003800380018001C001F00070000000F5
:1032B000000000000000000000000000FC1FFC1FD8
:1032C000000C000600038001C00060003000180000
:1032D000FC1FFC1F000000000000000000000000B8
:1032E000000000038001C000C000C000C000C0009A
:1032F000C00060006000300060004000C000C000FE
:10330000C000C000C000C000800100030000000039
:103310000000800180018001800180018001800126
:103320008001800180018001800180018001800195
:103330008001800180018001800180018001000006
:1033400000006000C000C001800180018001800198
:1033500080010003000300060003000180018001DA
:103360008001800180018001C00060000000000039
:10337000000000000000000000000000000000004D
:10338000F010F81F080F000000000000000000000F
:10339000000000000000000000000000000000002D
:1033A000C0330008000000201C000000F81C0008CA
:1033B000DC3300081C00002004040000081D000885
:1033C000000000000000FFFF000000D0000000002F
:0C33D00000000000D021000810001800D0
:04000005080001AD41
:00000001FF
