:020000040800F2
:1000000020200020C101000829170008550600081B
:1000100025170008A9020008951E0008000000002E
:10002000000000000000000000000000551D000856
:10003000DD030008000000002D170008391E00082D
:10004000DB010008DB010008DB010008DB01000820
:10005000DB010008DB010008DB010008DB01000810
:10006000DB010008DB010008DB010008DB01000800
:10007000DB010008DB010008DB010008DB010008F0
:10008000DB010008DB010008DB010008DB010008E0
:10009000DB010008DB010008DB010008DB010008D0
:1000A000DB010008DB010008DB010008DB010008C0
:1000B000DB010008DB010008DB010008DB010008B0
:1000C000DB010008DB010008DB010008DB010008A0
:1000D000DB010008DB010008DB010008DB01000890
:1000E000DB010008DB010008DB010008DB01000880
:1000F000DB010008DB010008DB010008DB01000870
:10010000DB010008DB010008DB010008DB0100085F
:10011000DB010008DB010008DB010008DB0100084F
:10012000DB010008DB010008DB010008DB0100083F
:10013000DB010008DB010008DB010008DB0100082F
:10014000DB010008DB010008DB010008DB0100081F
:10015000DB010008DB010008DB010008DB0100080F
:10016000DB010008DB010008DB010008DB010008FF
:10017000DB010008DB010008DB010008DB010008EF
:10018000DB010008DB010008DB010008DB010008DF
:10019000DB010008DB010008DB010008DB010008CF
:1001A000DB010008DB010008DB010008DFF80CD0F0
:1001B00000F068F800480047991E00082020002041
:1001C0000648804706480047FEE7FEE7FEE7FEE7F1
:1001D000FEE7FEE7FEE7FEE7FEE7FEE73D1E00085E
:1001E000AD0100082DE9F05F0546002092469B46D0
:1001F00088460646814640241BE02846414647463D
:10020000224600F02FF853465A46C01A914110D3A7
:1002100011461846224600F016F82D1A67EB010821
:100220004F4622460120002100F00DF817EB00098F
:100230004E41201EA4F10104DFDC484631462A4627
:100240004346BDE8F09F202A04DB203A00FA02F181
:10025000002070479140C2F1200320FA03F31943B4
:1002600090407047202A04DB203A21FA02F0002156
:10027000704721FA02F3D040C2F1200291400843B6
:1002800019467047064C074D06E0E06840F0010350
:1002900094E8070098471034AC42F6D3FFF78AFF82
:1002A0002436000844360008FEE7000080B54FF40D
:1002B0000000012101F06AFA4FF40000002101F072
:1002C00065FA80BD4BF20401C4F2020109680840DE
:1002D00018BF012070470000B0B54BF2000EC4F209
:1002E000020EDEF800204EF2FC03CFF6FC731A403B
:1002F000CEF80020DEF80030D0E900121943CEF825
:100300000010DEF83410032A21F00701CEF8341073
:10031000DEF8341041EA0201CEF834100BD8DFE8E1
:1003200002F00212192000F10C0416CC13044FEA5B
:10033000012C22061CE000F10C0416CC13024FEA3B
:10034000011C220314E0D0E903124FEA012C13042C
:1003500000220DE0D0E903124FEA411CD302002233
:1003600006E000F10C0416CC93024FEA411CE203B4
:1003700043EA0C01DEF8383011438268D0E9064CBC
:1003800011431943056ACEF83810CEF83C40DEF828
:10039000401043F6FF729143CEF84010DEF8401053
:1003A00041EA0C01CEF84010406ADEF8441045EAFC
:1003B000004001F04041CEF84410DEF844100843FC
:1003C000CEF84400B0BD00004BF20000C4F20200C1
:1003D000016841F0010101607047000070470000B2
:1003E00081B00090009828B10098013800900098E2
:1003F0000028F9D101B0704764221028CAF2000227
:1004000009D0B0F5805F05D0B0F5807F14BFF4321D
:10041000203200E0403210680840401AB0FA80F004
:100420004009704790E80E00C06811436FF01F024A
:1004300002EB4312114341EA402040F25011CAF24C
:1004400000010860704700002DE9F04F40F2401CA9
:1004500090E8140CCAF2000C00F1100999E880032E
:10046000C1695CF8223047F6FF7E23EA0E05D0E929
:100470000863002A41EA060144EA010444EA05044B
:1004800044EA0A0444EA0B0444EA070444EA080480
:1004900044EA090444EA03020BD0DCF800401943A3
:1004A00024EA0E073943CCF8001001684CF82120EB
:1004B00001E0CCF800200268A2B30CF1080151F869
:1004C0002210826A01F07041D2E900379668013B40
:1004D0006FF00F0404EB07176FF0FF04194304EBF0
:1004E000062639431569DCF808303143D7684FF2E6
:1004F0000006CFF6FF76526906EB0737002603F0B9
:100500007043CFF6F07606EB02523B4300241A43C9
:10051000CFF6FF74CCF8082004EB0545026841EAE9
:10052000050030E0DCF80810806A01F0704ED0E978
:100530000037D0E90265D0E90441D0F818806FF0A7
:100540000F0000EB07106FF0FF0707EB06264FF2D6
:100550000007013BCFF6FF7707EB0535002743EA9D
:100560000E03CFF6FF77184307EB04440027304310
:10057000CFF6F077284307EB01512043A8F101079C
:10058000084340EA07600CEB82018860BDE8F08F09
:1005900040F25411CAF200010A6842EA40000860C1
:1005A000704700002DE9F041D1F8008000234FF0A2
:1005B000030C4FF0010E00240FE000BFC268AA43F5
:1005C000C2600A69C5689A402A43C2600134102C8F
:1005D00003F1020308BFBDE8F08128FA04F5ED0736
:1005E000F4D006680CFA03F5AE4306604E6807685F
:1005F00006FA03F2013E3A43012E0260DED8826819
:10060000EE43324082608A6886689A403243826054
:1006100042680EFA04F6B24342608A894668A240F4
:1006200092B232434260C9E71C2303EA810C6FF0A7
:10063000030303EA510108440F23016A03FA0CF390
:1006400099430162016A02FA0CF211430162704798
:1006500001837047FEE70000F0B58BB0044605B299
:10066000C60AC0F34517FFF721FE4FF44030019052
:100670000220029004F01F000390FF2004970596CB
:10068000B5F1FF3FC8BF0020069040F21000C2F253
:10069000000000784FF0504100284FF000001CBFD0
:1006A0004BF60001CDF20B0108904FF4F070099069
:1006B0004FF448700A9001A80791FFF70DFEFFF76D
:1006C00083FE00BF0220FFF7FDFD0028FAD040F2B4
:1006D0001600C2F20000008800F0D0FC0BB0F0BDA4
:1006E00070B540F2180604460025C2F2000600BFAD
:1006F00030688088411989B2814238BF70BDA9B283
:100700002046202200F008F8306880880544A8B20E
:10071000B0F5487FECD370BD80B540F21803C2F24B
:1007200000031B68203AD3F800C0DB88D2B25A43DA
:100730000CEB420200F022F880BD0000F0B581B061
:1007400040F218070C4605460026C2F2000700BF1B
:1007500022788AB138688088811989B281420BD3A6
:10076000B1B22846FFF7D8FF3868013480880644C4
:10077000B0B2B0F5487FEBD301B0F0BD2DE9F04F3A
:1007800083B040F21803C2F200031C68E788002F10
:1007900057D04FF4C8677843009018684AF6AB29E1
:1007A00040F2000E40F2100A40F2160B01900020B9
:1007B000CAF6AA29C2F2000EC2F2000AC2F2000B67
:1007C0000AE000BF02993144019CCB1A03F548713D
:1007D000E3880130984234D2A388002BF4D0009FE4
:1007E000029107EB4107002680211AE02CFA06F55A
:1007F000ED075D4608BF75460C2B98BF5D469AF81D
:1008000000302D88002B4FF050431CBF4BF60003E7
:10081000CDF20B03DD53A38801369E4207F1020798
:10082000D0D232F810C00C2BA3FB0985DED825F0FE
:10083000070501FA05F5354115EA0C057546DED0C8
:10084000D4E703B0BDE8F08F2DE9F04F4BF6000C74
:10085000022740F2160840F21009CDF20B0C534269
:10086000A7EB42024FF0000EC2F20008C2F20009EC
:100870004FF4487A19E000BF0EF1010E002702EB99
:100880004E049A42C8BF17461EEB030F18BF174607
:10089000621C5C1C65009F4205F10105C4BF234634
:1008A0002A44012BA8BFBDE8F08F99F80070A0EB97
:1008B000030B0EEB0106B8F8004006FB0AB5002F4B
:1008C0004FF0504718BF674627F8154099F8004089
:1008D0001F18B8F8005006FB0A76002C4FF0504461
:1008E00018BF644624F8165099F80040A1EB0E0694
:1008F000B8F8005006FB0A77002C4FF0504418BFA0
:10090000644624F8175099F80040B8F80050002CBD
:100910004FF0504406FB0AB618BF6446724524F8EF
:100920001650A9DD1746B4E72DE9F04F81B0824695
:1009300003208946A0EB420500264FF00608144626
:1009400000920FE0A8EB8400002D08F1040158BFCD
:1009500000F10408E84304EBE07401364544A64284
:1009600088462FD8ACB1A9EB04016200AAEB0600BF
:100970001FFA81FB97B280B259463A46012300F034
:1009800071F806EB0A0080B259463A46012300F09E
:1009900069F8002ED6D0A9EB06017200AAEB04007C
:1009A0001FFA81FB97B280B259463A46012300F004
:1009B00059F804EB0A0080B259463A46012300F088
:1009C00051F8BFE7009A50464946FFF73DFF01B096
:1009D000BDE8F08F2DE9F0478AB040F21608C2F268
:1009E00000081446B8F8002099464FEAD22A02F0CF
:1009F0001F06C2F3451540F21002C2F2000212783F
:100A00004FF05043002A4FF4487201FB02001CBF14
:100A10004BF60003CDF20B0303EB4007FFF746FC58
:100A20004FF4403000900220CDE901060F20CDE9BF
:100A30000507C4F54870CDE907096846CDE9035AB2
:100A40000994FFF749FCFFF7BFFC00BF0220FFF746
:100A500039FC0028FAD0B8F8000000F00FFB0AB00B
:100A6000BDE8F0872DE9F0438BB0914640F21002CB
:100A7000C2F2000212789846002A4FF4487201FB35
:100A8000020040F216014FF05043C2F200011CBFB9
:100A90004BF60003CDF20B03098803EB4006CF0AA7
:100AA00001F01F05C1F34514FFF700FC4FF440307F
:100AB00001900220CDE902050F20B8F1000FCDE929
:100AC00004470690079606D040F21F30CDE908098A
:100AD0004FF0010903E0002008900120099001A8CF
:100AE000CDF82890FFF7F8FBFFF76EFC0220FFF728
:100AF000E9FB0028FAD00BB0BDE8F083F0B581B077
:100B00001C46002316460D460746FFF7ABFF60194B
:100B100081B2384632460023FFF7A4FF3846294603
:100B200022460123FFF79EFFF01980B22946224694
:100B30000123FFF797FF01B0F0BD00002DE9F04F52
:100B400083B00446101A0D4648BF4042591B48BFA7
:100B50004942A2424FF0010B4FF0010638BF4FF05F
:100B6000FF3BAB420FFA80FC0FB238BF4FF0FF36AD
:100B7000BC4507DA0023DA464FF0000BBC46864638
:100B8000084604E04FF0000A334600268E4607B2BE
:100B9000002F25D40CEBDC704FEA60080FFA8EF0C2
:100BA0004FF000090190029720B229B21F4600F0D1
:100BB000BFFD3B46DDE901075C4400FA88F001B265
:100BC000B1EB0708B8BF804609F10100A8BF544443
:100BD0003544B9420FFA80F9A8BF1D44B945E3DD99
:100BE00003B0BDE8F08F00002DE9F04F85B040F272
:100BF000FF100121012600F0BDFD042041F6000890
:100C000000900220C4F20208CDE90100002008F59E
:100C100080656C46CDE90300284621460227FFF790
:100C2000C1FC284602210E22FFF7FEFC082000909E
:100C300028462146FFF7B6FC284603210E22FFF77F
:100C4000F3FC4FF48070009028462146FFF7AAFC81
:100C5000284608210E22FFF7E7FCA8F5A05A5046C7
:100C600021460096FFF79EFC504600210922FFF71F
:100C7000DBFC4FF40060A8F5C059009048462146BF
:100C8000FFF790FC48460B210E22FFF7CDFC4FF4F6
:100C90008050009048462146FFF784FC48460C21CE
:100CA0000E22FFF7C1FC504621460097FFF77AFC61
:100CB000504601210922FFF7B7FC4FF0400B404698
:100CC0002146CDF800B0FFF76DFC404606210E220C
:100CD000FFF7AAFC2020A8F50067009038462146BF
:100CE000FFF760FC384605210E22FFF79DFC3846D1
:100CF0002146CDF800B0FFF755FC384606210E22FC
:100D0000FFF792FC4FF40050009028462146FFF771
:100D100049FC28460D210E22FFF786FC4FF4806027
:100D2000009040462146FFF73DFC40460A2109223B
:100D3000FFF77AFC4FF40040009028462146FFF769
:100D400031FC28460F210E22FFF76EFC08F50065E6
:100D5000284621460096FFF725FC284600210E2252
:100D6000FFF762FC8020A8F58056009030462146AF
:100D7000FFF718FC304607210E22FFF755FC042030
:100D8000009028462146FFF70DFC284602210E223E
:100D9000FFF74AFC10200090384621461026FFF746
:100DA00001FC384604210E22FFF73EFC4FF4805030
:100DB000009040462146FFF7F5FB40460C210E22ED
:100DC000FFF732FCA8F5406738462146CDF800B061
:100DD000FFF7E8FB384606210E22FFF725FC4FF40B
:100DE0000060009040462146FFF7DCFB40460B21A7
:100DF0000E22FFF719FC2846214600964FF0100BF3
:100E0000FFF7D0FB284604210E22FFF70DFC082037
:100E1000009048462146FFF7C5FB484603210E22B5
:100E2000FFF702FC4FF48070009050462146FFF718
:100E3000B9FB504608210E22FFF7F6FB4FF400796C
:100E400050462146CDF80090FFF7ACFB50460921F3
:100E50000E22FFF7E9FB4FF0800A40462146CDF80D
:100E600000A0FFF79FFB404607210E22FFF7DCFBA7
:100E70004FF48066284621460096FFF793FB2846EC
:100E80000A210E22FFF7D0FB28462146CDF800901C
:100E9000FFF788FB284609210E22FFF7C5FBA8F5BE
:100EA0008065284621460096FFF77CFB28460A21EC
:100EB0000E22FFF7B9FB02200290012000210190D1
:100EC000CDE9031038462146CDF800B0FFF76AFBA4
:100ED00038462146CDF800A0FFF764FB38461021C4
:100EE000FFF7B6FB38468021FFF7B2FB05B0BDE83F
:100EF000F08F000040F21800C2F200000068704756
:100F000080B590B04FF08060012100F057FC4FF4A5
:100F10000000012100F02EFCFFF766FE00F072FEDB
:100F20000020CDE90D000F90CDE90100CDE90300CF
:100F30004FF4C0700721042200F072FC4FF480309F
:100F400000F05EFC012000F065FC00BF3D2000F0D9
:100F500041FC0028FAD00020CDE905002E200790A2
:100F60001720089040F24E30099040F2F7100A9096
:100F700040F262300B9040F20D200C9001A800F07E
:100F800021FB10B080BD000070B590B02F20009004
:100F900040F24E3001901820029040F2F71003907A
:100FA000FF2005900020CDE90600CDE908004FF4B0
:100FB00080600A9005200B9040F243600D904FF442
:100FC000C8600E904FF4F07046F684040F904FF016
:100FD0005040C4F201046D4603260C902046294679
:100FE000049600F04FFB4BF60000CDF20B000C9086
:100FF0004FF4C06004960A90072004F180060B901D
:101000003046294600F03EFB012000F085FB2046DB
:10101000012100F02FFB3046012100F02BFB0120C5
:1010200000F07AFB40F20400C2F2000000F012F877
:10103000012000F0B9FA10B070BD000040F21602B5
:10104000C2F20002108040F20000C2F200000180F3
:101050007047000040F21801C2F2000108607047BA
:1010600040F21001C2F20001002818BF01200870F0
:1010700040F21401C2F200010870704740F21601FC
:10108000C2F200010880704780B5014640F21400AA
:10109000C2F20000027846F68400C4F20100002A81
:1010A00018BF803000F0E4FA012000F035FB80BD6D
:1010B00010B59AB040F21C04C2F20004207801304E
:1010C00020700120FFF7CCFFFF20FFF7DDFF4FF47A
:1010D0000040FFF7C1FA4FF6FF704FF40041FFF7F1
:1010E000ADFF40F20400C2F20000FFF7B3FFFFF7CC
:1010F00001FFC08843F29C51C0F60001FFF71EFBC0
:10110000FFF7F8FEC08843F20761400080B2C0F6E6
:101110000001FFF713FBFFF7EDFEC08843F2B25169
:1011200000EB400080B2C0F60001FFF707FBFFF7BD
:10113000E1FEC08843F27C51800080B2C0F600011D
:10114000FFF7FCFAFFF7D6FEC08843F2D45100EB5C
:10115000800080B2C0F60001FFF7F0FAFFF7CAFE88
:10116000C088CFA100EB4000400080B2FFF7E6FA54
:10117000227801ACD3A1204600F0BEFEFFF7BAFEF4
:10118000C088C0EBC00080B2FFF7AAFAFFF7B2FE3A
:10119000C0882146C0EBC00080B2FFF7CFFA48F20A
:1011A0001F00FFF76BFFFFF7A5FEC088C00080B2ED
:1011B000FFF796FAFFF79EFEC088CBA1C00080B271
:1011C000FFF7BCFA4FF47C404FF40041FFF736FFC5
:1011D0003220FA2140F2EE22FA23FFF7AFFC322050
:1011E0004FF4967140F2EE224FF49673FFF7A6FC8F
:1011F00048F2E0304FF40041FFF720FF4FF49670C3
:10120000FA214FF4C8724FF4C873FFF797FC4FF4FC
:101210001670FA214FF416724FF4C873FFF78EFC64
:101220006FF07F40FFF7DCF84FF400404FF40041CF
:10123000FFF704FF0020C8214FF448724FF48C736D
:10124000FFF7C8FB48F21F00FFF718FFFFF752FE39
:10125000C088C00080B2FFF743FAFFF74BFEC0889A
:10126000A4A1C00080B2FFF769FA4FF47C404FF4AC
:101270000041FFF7E3FEC820FA21C8226423FFF7EC
:101280003DFC48F2E0304FF40041FFF7D7FE4FF449
:10129000AF70FA21C8223223FFF730FC48F21F005A
:1012A0004FF40041FFF7CAFEC8204FF4AF7132225D
:1012B000C823FFF723FC6FF07F40FFF791F84FF44E
:1012C00000404FF40041FFF7B9FE0020C8214FF461
:1012D00048724FF48C73FFF77DFB48F21F00FFF755
:1012E000CDFEFFF707FEC088C00080B2FFF7F8F917
:1012F000FFF700FEC08882A1C00080B2FFF71EFA8F
:101300004FF47C404FF40041FFF798FEC820FA21CB
:10131000C8226423FFF75EFB48F2E0304FF400413F
:10132000FFF78CFE4FF4AF70FA21C8223223FFF78B
:1013300051FB48F21F004FF40041FFF77FFEC82029
:101340004FF4AF713222C823FFF744FB6FF07F40A8
:10135000FFF746F84FF400404FF40041FFF76EFEF0
:101360000020C8214FF448724FF48C73FFF732FB12
:1013700048F21F00FFF782FEFFF7BCFDC088C000E7
:1013800080B2FFF7ADF9FFF7B5FDC08860A1C000DE
:1013900080B2FFF7D3F94FF47C404FF47C41FFF764
:1013A0004DFEC8204FF4AF713222FFF74DFA48F2DC
:1013B000E03048F2E031FFF741FE4FF4AF704FF4F8
:1013C000AF714B22FFF740FA6FF07F40FFF708F84C
:1013D0004FF400404FF40041FFF730FE0020C821D9
:1013E0004FF448724FF48C73FFF7F4FA48F21F0081
:1013F000FFF744FEFFF77EFDC088C00080B2FFF714
:101400006FF9FFF777FDC08845A1C00080B2FFF7F4
:1014100095F94FF47C404FF40041FFF70FFE4FF475
:1014200096704FF4AF713222FFF77EFA48F2E03047
:101430004FF40041FFF702FE4FF4E1704FF4AF713B
:101440004B22FFF771FA6FF07F40FEF7C9FF4FF4B0
:1014500000404FF40041FFF7F1FD0020C8214FF498
:1014600048724FF48C73FFF7B5FAFFF743FDC0885D
:10147000C00080B2FFF734F96FF07F40FEF7B0FF95
:101480004FF400404FF40041FFF7D8FD0020C82181
:101490004FF448724FF48C73FFF79CFA1AB010BDEA
:1014A000546F7563682070616420757365204949C5
:1014B0004320746F20636F6D6D756E696361746531
:1014C00000000000446973706C61792076616C756E
:1014D000652064656D6F3A2074657374436F756E33
:1014E00074203D202564200044726177206C696E71
:1014F000653A00004472617720526563743A0000D7
:10150000447261772046756C6C20526563743A00B2
:101510004472617720636972636C653A0000000071
:10152000447261772066756C6C20636972636C65C8
:101530003A0000002DE9F04186B08020012101240D
:1015400000F018F94FF48068CDE90184059441F664
:1015500000440020C4F2020401ADCDE9030020469E
:101560002946FFF71FF84FF40067204629460197E8
:10157000FFF718F84FF48056204629460196FFF7EA
:1015800011F8A4F818802783268306B0BDE8F081FF
:1015900046F61801C4F201010A68002822F001028F
:1015A00018BF01320A60704746F61801C4F2010103
:1015B0000A68002822F4803218BF02F580320A60DF
:1015C00070470000B0B546F60801C4F201010A6890
:1015D0004FF6000CCFF2000C02EA0C020A6000F198
:1015E000100E9EE80C40C4690D6843EA02422A438B
:1015F0000A604A6844EA0E4302EA0C024A604A68FA
:101600001A434A608A6802EA0C028A60D0E9082319
:101610008D6843EA02422A438A60CA6802EA0C02E1
:10162000CA60D0E90A23CD6843EA02422A43CA606D
:101630000A6948F68F03C0F6FE731A400A6190E803
:101640002C00C4681A432A430B6922431A430A61D7
:10165000D0E90C234D6A120405F07F454D62806B82
:1016600042EA03224B6A104318434862B0BD0000AF
:10167000416170470268002922F0010218BF01325F
:1016800002607047B0B54268002502F470424260C3
:1016900091E80C5042EA03424260826802F47042D0
:1016A00082604CEA0E428260026922F00702026107
:1016B0000A690261D1E907C24B6A4FEA024E8269A8
:1016C00085618C694EEA0C2242EA03622243826100
:1016D000426940F2077322F0FF0242614A694261A7
:1016E000C2699A43C261D1E90A231A43C261826A7C
:1016F00085620A6B82628A6BC36A03F0E023C3626D
:101700004B6B43EA0242C262026B40F2FF739A43A0
:101710000263C96B0163B0BD46F62401C4F2010146
:1017200008607047FEE70000704700007047000047
:1017300082B2B2F5487F1CD88AB2B2F5F07F88BF7A
:10174000704740F21002C2F2000212784FF050438C
:10175000002A4FF4487211FB020040F21601C2F257
:10176000000109881CBF4BF60003CDF20B0323F8E0
:1017700010107047002943F63001C4F202010A68D4
:101780000CBF22EA0000104308607047002943F6AE
:101790001001C4F202010A680CBF22EA00001043E3
:1017A00008607047002943F63801C4F202010A6854
:1017B0000CBF22EA0000104308607047002943F67E
:1017C0004401C4F202010A680CBF22EA000010437F
:1017D000086070470121B1EB501F43F60001C4F2CD
:1017E000020104D04209022A14BF74317031096821
:1017F00000F01F0021FA00F000F001007047000027
:1018000043F68C01C4F202010A6822F4403210430C
:10181000086070477021C4F24721086070470000DB
:10182000090641EA801043F6880140EA0270C4F2DA
:1018300002010860704700002DE9F04F85B0FC20E0
:1018400001210124FFF796FF41F200080220C4F2B3
:101850000208CDE90100002008F58066E946CDE9DF
:10186000030030464946022500940127FEF79AFE00
:10187000304600210C22FEF7D7FE3046494600953F
:101880000225FEF78FFE304601210C22FEF7CCFE2A
:101890000420009030464946FEF784FE304602217F
:1018A0000C22FEF7C1FE0820009030464946FEF7A4
:1018B00079FE304603210C22FEF7B6FE1020009080
:1018C00030464946FEF76EFE304604210C22FEF7F4
:1018D000ABFE2020009030464946FEF763FE3046BE
:1018E00005210C22FEF7A0FE4FF4805000903046F8
:1018F0004946FEF757FE30460C210C22FEF794FEB7
:101900004FF40050009030464946FEF74BFE3046FB
:101910000D210C22FEF788FE4FF4804000903046E7
:1019200049464FF48044FEF73DFE30460E210C221E
:10193000FEF77AFE4FF400400090304649464FF4DF
:10194000004AFEF72FFE30460F210C22FEF76CFEF8
:10195000009708F50067384649464FF0010BFEF73F
:1019600021FE384600210C22FEF75EFE384649462D
:1019700000950225FEF716FE384601210C22FEF7DF
:1019800053FE0420009038464946FEF70BFE3846C9
:1019900002210C22FEF748FE0094A8F58064204640
:1019A0004946FEF7FFFD20460E210C22FEF73CFEC5
:1019B00020464946CDF800A0FEF7F4FD20460F2151
:1019C0000C22FEF731FE20464946CDF800B0FEF766
:1019D000E9FD204600210C22FEF726FE204649465E
:1019E0000095FEF7DFFD204601210C22FEF71CFECC
:1019F0008020009040464946FEF7D4FD404607212E
:101A00000C22FEF711FE4FF48070009040464946CC
:101A10004FF48075FEF7C6FD404608210C22FEF704
:101A200003FE4FF4007B40464946CDF800B0FEF778
:101A3000B9FD404609210C22FEF7F6FD4FF4806AFD
:101A400040464946CDF800A0FEF7ACFD40460A21CD
:101A50000C22FEF7E9FD4FF4006000904046494635
:101A6000FEF7A0FD40460B210C22FEF7DDFD4FF4F2
:101A70008050009040464946FEF794FD40460C21B8
:101A80000C22FEF7D1FD4FF400500090404649462D
:101A9000FEF788FD40460D210C22FEF7C5FD4FF4F0
:101AA0008040009040464946FEF77CFD40460E21AE
:101AB0000C22FEF7B9FD4FF4004000904046494625
:101AC000FEF770FD40460F210C22FEF7ADFD2046CB
:101AD00049460095FEF766FD204608210C22FEF7D8
:101AE000A3FD20464946CDF800B0FEF75BFD204639
:101AF00009210C22FEF798FD20464946CDF800A0AA
:101B0000FEF750FD20460A210C22FEF78DFD4020F5
:101B100008F54064009020464946FEF743FD204604
:101B200006210C22FEF780FD102000903846494621
:101B3000FEF738FD384604210C22FEF775FD202003
:101B4000009038464946FEF72DFD384605210C2207
:101B5000FEF76AFDA8F500654FF0010A28464946E0
:101B6000CDF800A0FEF71EFD284600210C22FEF74E
:101B70005BFD4FF40060009030464946FEF712FDD1
:101B800030460B210C22FEF74FFD4FF40040009031
:101B900038464946FEF706FD38460F210C22FEF76F
:101BA00043FD4FF48070009038464946FEF7FAFC3A
:101BB000384608210C22FEF737FD80200090204691
:101BC0004946FEF7EFFC204607210C22FEF72CFDCC
:101BD0000220009040464946FEF7E4FC40460121C1
:101BE0000C22FEF721FD40464946CDF800A0FEF745
:101BF000D9FC404600210C22FEF716FD05B0BDE8D9
:101C0000F08F000010B592B0FFF716FE0120012101
:101C10000124FFF7C7FD02200090CDE90400CDE9C3
:101C200006040820099010200A9040200721042271
:101C30000B904FF4C0700191CDE902210C9000206F
:101C40004FF400610D90CDE90E104FF4005010904C
:101C50006846119007A80894FEF7F6FB00F002F81A
:101C600012B010BD80B584B0012008210090CDE9EC
:101C700001100020039000BF01202021FEF7BCFBD3
:101C80000028F9D16846FEF7CDFB00F04DF80220A0
:101C9000009008200190012002900020039000BFD6
:101CA00001202021FEF7A8FB0028F9D16846FEF7A5
:101CB000B9FB03200090082001900420029000202E
:101CC000039000BF01202021FEF796FB0028F9D1E8
:101CD0006846FEF7A7FB00BF01202021FEF78CFB22
:101CE0000028F9D16846FEF79DFB042000900820EB
:101CF00001900120029040F2312003900120202128
:101D0000FEF77AFB0028F9D16846FEF78BFB40F21C
:101D1000AB20FEF73DFC00BF01202021FEF76CFB4D
:101D20000028F9D104B080BD82B00A2001900020C3
:101D30000090019848F2A061C0F201014843009070
:101D4000009828B100980138009000980028F9D137
:101D500002B070477047000082B043F608000021CF
:101D6000C4F202000191009150F8081C41F4803146
:101D700040F8081C50F8081C01F40031009101994A
:101D800001310191009919B90199B1F5A04FF1D133
:101D900050F8081C890354BF0021012100910099CB
:101DA000012946D1826B47F2000142F08052C4F211
:101DB000000182630A6842F440420A6002680260DD
:101DC000026842F400420260026842F4A0520260DB
:101DD00045F61922C0F2407240F8042C50F8082C45
:101DE00042F0807240F8082C50F8082C9201FBD584
:101DF0000A6842F480320A604A68D203FCD50A6855
:101E000042F400320A6000BF4A689203FCD540F2F7
:101E10000571C0F8F813016821F003010160016841
:101E200041F00201016000BF016801F00C010829C6
:101E3000FAD102B0704700007047000010B54EF6AE
:101E40008854CEF2000420684FF6FF7340F470000F
:101E5000206043F60000C4F202000168CFF6F6638A
:101E600041F0010101600021816002681A400260B6
:101E700043F21002C2F200424260026822F4802261
:101E80000260C160FFF768FF4FF0006044F8800C0B
:101E900010BD0000FEE70000FFF74CFBFFF730F835
:101EA000FFF772F80120FFF773FB0020FFF7D8F867
:101EB0004FF40040FEF7D0FB0120FFF7D1F8FF20E0
:101EC000FFF7E2F84FF40040FEF7C6FB41F618407A
:101ED000C4F202004FF4806101804FF40061018080
:101EE0004FF48051418040F6FF70FEF779FA00BF51
:101EF000FFF7DEF8FCE700000FB4084B10B504A9AB
:101F000002AA039800F01CF8044602A9002000F081
:101F100048FA204610BC5DF814FB0000A32300081B
:101F200002E008C8121F08C1002AFAD170477047A2
:101F3000002001E001C1121F002AFBD17047000000
:101F40002DE9FF4F8DB00F460546002606E02528F7
:101F50000BD0DDE90F1290476D1C761C2878002805
:101F6000F5D111B03046BDE8F08F0024A246A1465D
:101F70000122EC4900E0044315F8013F203B02FA3E
:101F800003F00842F7D128782A2810D06FF02F02EA
:101F90002878A0F13001092914D80AEB8A0102EB54
:101FA000410144F0020400EB010A6D1CF0E701CF8F
:101FB0005FEA000A03D544F40054CAF1000A44F071
:101FC00002046D1C28782E2817D115F8010F44F053
:101FD00004042A280ED06FF02F022878A0F13001D7
:101FE00009290AD809EB890102EB410100EB01093B
:101FF0006D1CF2E757F8049B6D1C28786C280FD0F5
:1020000006DC4C2817D068280DD06A2814D104E0CB
:10201000742810D07A280FD10DE044F400140AE09F
:1020200044F4801401E044F440146978814202D100
:1020300004F580146D1C6D1C2A786E2A1FD00CDCF0
:10204000632A31D004DC002A8BD0582A11D1A3E0B6
:10205000642A68D0692A0CD165E0732A2ED004DC8A
:102060006F2A73D0702A04D19BE0752A6FD0782A2A
:102070006ED01046DDE90F129047761C50E1C4F394
:102080000250022806D0032809D0042801CF09D025
:10209000066045E101CFF117C0E9006140E101CFE1
:1020A00006803DE106703BE117F8040B8DF8000057
:1020B00000208DF80100EB46012003E057F804BB37
:1020C0004FF0FF3061074FF0000102D40DE008F13E
:1020D0000101884649450FDA8045F8DB1BF80810F6
:1020E0000029F4D108E008F1010188468142FADBB9
:1020F0001BF808100029F6D1DDE90F23AAEB080030
:102100008146214600F036F9304400EB080604E031
:10211000DDE90F121BF8010B9047B8F10108F7D267
:1021200021464846F7E00A21C4F302534FF0000B62
:102130000891022B04D001CFC117032B09D00AE06C
:10214000FF1D27F00707F7E8020108E032E01FE073
:1021500020E000B2C117042B01D140B2C117031E09
:1021600071F1000307DA4FF0000CD0EB0C006CEBC0
:1021700001012D2302E0230504D52B238DF8243003
:10218000012303E0E30701D02023F7E7984658E056
:102190000A2110E010210EE010204FF0000B0890F3
:1021A0000CE010214FF0000B44F004044FF008093C
:1021B000089103E008214FF0000B0891C4F302538B
:1021C000022B04D001CF0021032B06D006E0FF1D17
:1021D00027F00707F7E8020103E080B2042B00D1E3
:1021E000C0B24FF0000823072BD5702A07D0DDF8C6
:1021F00020C08CF0100C5CEA0B0C05D00EE04023E4
:102200008DF82430012308E050EA010306D0302382
:102210008DF824308DF8252002239846DDF820C063
:102220008CF0080C5CEA0B0C0BD150EA010301D1D5
:10223000630706D530238DF824304FF00108A9F14B
:102240000109582A04D038A20B9208AA0A920BE07E
:102250003AA2F9E75B46089AFDF7C4FF0B9B9B5C2B
:102260000A9A521E0A92137050EA0102F2D10A9899
:10227000ADEB000000F1200B600702D524F48034A0
:1022800001E04FF00109D94502DDA9EB0B0000E0A8
:10229000002000EB0B0141440890AAEB010AE00387
:1022A00006D4DDE90F232146504600F063F80644CA
:1022B0004FF0000908E009A911F80900DDE90F1243
:1022C000904709F10109761CC145F4DBE0030CD508
:1022D000DDE90F232146504600F04CF8064404E0A7
:1022E000DDE90F1230209047761C0899481E0890AF
:1022F0000029F5DC08E00A980A990078491C0A913F
:10230000DDE90F129047761CBBF10001ABF1010B28
:10231000F1DC21465046DDE90F2300F019F80644B0
:102320006D1C1BE609280100303132333435363755
:102330003839616263646566000000003031323311
:1023400034353637383941424344454600000000B1
:102350002DE9F041044600251E461746880404D4A2
:1023600005E039462020B0476D1C641EF9D528468B
:10237000BDE8F0812DE9F041044600251E46904657
:10238000C80301D5302700E02027880404D505E0E4
:1023900041463846B0476D1C641EF9D52846BDE855
:1023A000F0810A68531C0B60107070470000000039
:1023B000000000000000000000000000000000001D
:1023C000000000000000000000000000000000000D
:1023D000000000000000000000000000000080017C
:1023E00080018001800180018001800180018001E5
:1023F00080018001800180010000000080018001D7
:1024000000000000000000000000000000000000CC
:10241000CC00CC00CC00CC00CC00CC0000000000F4
:1024200000000000000000000000000000000000AC
:10243000000000000000000000000000000000009C
:102440000000000000000000600C600C600C300612
:102450003006FE1FFE1F300638071803FE1FFE1F42
:10246000180318038C018C018C010000000080000F
:10247000E003F80F9C0E8C1C8C188C009800F8015F
:10248000E007800E801C8C188C189C18B80CF00F7C
:10249000E003800080000000000000000000000059
:1024A00000000E181B0C110C11061106110311036C
:1024B0009B018E01C038C06C60446044304430449D
:1024C0001844186C0C380000000000000000E00107
:1024D000F0033807180618063003F001F000F80082
:1024E0009C310E33061E061C061C063FFC73F021B1
:1024F00000000000000000000000000000000000DC
:102500000C000C000C000C000C000C000000000083
:1025100000000000000000000000000000000000BB
:1025200000000000000000000000000000000002A9
:1025300000038001C000C000600060003000300077
:1025400030003000300030003000300060006000AB
:10255000C000C00080010003000200000000200055
:102560006000C00080018001000300030006000637
:102570000006000600060006000600060003000331
:1025800080018001C0006000200000000000000009
:102590000000000000000000C000C000D806F807DE
:1025A000E0013003380700000000000000000000D8
:1025B000000000000000000000000000000000001B
:1025C0000000000000000000800180018001800107
:1025D0008001FC3FFC3F800180018001800180017F
:1025E00000000000000000000000000000000000EB
:1025F00000000000000000000000000000000000DB
:102600000000000000000000000000000000800149
:1026100080010001000180000000000000000000B7
:1026200000000000000000000000000000000000AA
:1026300000000000E007E0070000000000000000CC
:10264000000000000000000000000000000000008A
:10265000000000000000000000000000000000007A
:102660000000000000000000000000000000C000AA
:10267000C000000000000000000000000000000C8E
:10268000000C0006000600060003000300038003A0
:10269000800180018001C000C000C00060006000B7
:1026A0000000000000000000000000000000E00347
:1026B000F007380E180C0C180C180C180C180C1805
:1026C0000C180C180C180C18180C380EF007E00336
:1026D00000000000000000000000000000000001F9
:1026E0008001C001F0019801880180018001800112
:1026F00080018001800180018001800180018001D2
:102700000000000000000000000000000000E003E6
:10271000F80F180C0C180C1800180018000C000604
:1027200000038001C000600030001800FC1FFC1F87
:102730000000000000000000000000000000E001B8
:10274000F807180E0C0C0C0C000C0006C003C00798
:10275000000C001800180C180C18180CF807E003EF
:102760000000000000000000000000000000000C5D
:10277000000E000F000F800DC00C600C600C300CC0
:10278000180C0C0CFC3FFC3F000C000C000C000C67
:102790000000000000000000000000000000F80F32
:1027A000F80F180018000C00EC03FC071C0E001CAE
:1027B0000018001800180C181C0C180EF807E0037D
:1027C0000000000000000000000000000000C00742
:1027D000F00F381C181818000C00CC03EC0F3C0E3E
:1027E0001C1C0C180C180C18181C380EF007E003F1
:1027F0000000000000000000000000000000FC1FBE
:10280000FC1F000C00060006000380038001C001CD
:10281000C000E00060006000700030003000300058
:102820000000000000000000000000000000E003C5
:10283000F007380E180C180C180C3806F007F007C3
:10284000180C0C180C180C180C18380CF80FE003A6
:102850000000000000000000000000000000E00395
:10286000F007380E1C0C0C180C180C181C1C381E09
:10287000F81BE0190018000C000C1C0EF807F00102
:102880000000000000000000000000000000000048
:102890000000000000000000800180010000000036
:1028A0000000000000000000000000008001800126
:1028B0000000000000000000000000000000000018
:1028C0000000000000000000800180010000000006
:1028D00000000000000000000000000080018001F6
:1028E0000001000180000000000000000000000066
:1028F0000000000000000000000000000010001CAC
:10290000800FE003F8001800F800E003800F001CBF
:1029100000100000000000000000000000000000A7
:10292000000000000000000000000000F81F000090
:1029300000000000F81F0000000000000000000080
:102940000000000000000000000000000000000087
:102950000000000000000000000000000800380037
:10296000F001C007001F0018001FC007F001380069
:102970000800000000000000000000000000E0036C
:10298000F80F180C0C180C180018000C00060003A7
:102990008001C000C000C00000000000C000C000F6
:1029A0000000000000000000000000000000000027
:1029B000E00718180420C229224A11440944094496
:1029C000094409221113E20C024004201818E00700
:1029D0000000000000000000000000000000800374
:1029E0008003C006C006C006600C600C30183018AA
:1029F0003018F83FF83F1C700C600C6006C006C031
:102A00000000000000000000000000000000FC03C7
:102A1000FC0F0C0C0C180C180C180C0CFC07FC0F01
:102A20000C180C300C300C300C300C18FC1FFC0750
:102A30000000000000000000000000000000C007CF
:102A4000F01F38381C300C700660060006000600C7
:102A500006000600060006600C701C30F01FE00740
:102A60000000000000000000000000000000FE0365
:102A7000FE0F060E06180618063006300630063021
:102A800006300630063006180618060EFE0FFE0346
:102A90000000000000000000000000000000FC3FFB
:102AA000FC3F0C000C000C000C000C00FC1FFC1F79
:102AB0000C000C000C000C000C000C00FC3FFC3F58
:102AC0000000000000000000000000000000F83FCF
:102AD000F83F18001800180018001800F81FF81F19
:102AE0001800180018001800180018001800180026
:102AF0000000000000000000000000000000E00FE7
:102B0000F83F3C780E6006E007C00300030003FEB8
:102B100003FE03C007C006C00EC03CF0F83FE00F44
:102B200000000000000000000000000000000C3069
:102B30000C300C300C300C300C300C30FC3FFC3FB7
:102B40000C300C300C300C300C300C300C300C30A5
:102B500000000000000000000000000000008001F4
:102B6000800180018001800180018001800180015D
:102B7000800180018001800180018001800180014D
:102B8000000000000000000000000000000000063F
:102B90000006000600060006000600060006000605
:102BA000000600060006180618063807F003E001C4
:102BB00000000000000000000000000000000630DF
:102BC0000618060C060606038601C6006600760097
:102BD000DE008E0106030606060C061806300660A7
:102BE00000000000000000000000000000001800CD
:102BF0001800180018001800180018001800180015
:102C0000180018001800180018001800F81FF81F06
:102C100000000000000000000000000000000EE0C6
:102C20001EF01EF01EF036D836D836D836D866CC10
:102C300066CC66CCC6C6C6C6C6C6C6C686C386C36E
:102C400000000000000000000000000000000C3048
:102C50001C303C303C306C306C30CC30CC308C3163
:102C60000C330C330C360C360C3C0C3C0C380C3052
:102C70000000000000000000000000000000E0076D
:102C8000F81F1C380E70066003C003C003C003C0E9
:102C900003C003C003C006600E701C38F81FE007B5
:102CA0000000000000000000000000000000FC0F19
:102CB000FC1F0C380C300C300C300C300C18FC1F86
:102CC000FC070C000C000C000C000C000C000C00AD
:102CD0000000000000000000000000000000E0070D
:102CE000F81F1C380E70066003E003C003C003C069
:102CF00003C003C007E006630E3F1C3CF83FE0F74B
:102D000000C0000000000000000000000000FE0FF6
:102D1000FE1F06380630063006300638FE1FFE0756
:102D200006030606060C061806180630063006606E
:102D30000000000000000000000000000000E003B0
:102D4000F80F1C0C0C180C180C001C00F803E00FFA
:102D5000001E0038063006300E301C1CF80FE0074D
:102D60000000000000000000000000000000FE7FE6
:102D7000FE7F80018001800180018001800180014F
:102D8000800180018001800180018001800180013B
:102D900000000000000000000000000000000C30F7
:102DA0000C300C300C300C300C300C300C300C3043
:102DB0000C300C300C300C300C301818F81FE007B9
:102DC00000000000000000000000000000000360A0
:102DD0000630063006300C180C180C18180C180C9D
:102DE000380E30063006700760036003C001C00172
:102DF0000000000000000000000000000000036070
:102E0000C361C361C3616633663366336633663359
:102E100066336C1B6C1B6C1B2C1A3C1E380E380E58
:102E200000000000000000000000000000000FE0B3
:102E30000C7018303018700C600EC00780038003CF
:102E4000C003E006700C301C18180C300E6007E050
:102E5000000000000000000000000000000003C0AF
:102E600006600C301C383818300C6006E007C003D0
:102E7000800180018001800180018001800180014A
:102E80000000000000000000000000000000FC7FC7
:102E9000FC7F006000300018000C00060003800179
:102EA000C0006000300018000C000600FE7FFE7FAE
:102EB0000000000000000000000000000000E0032F
:102EC000E00360006000600060006000600060007F
:102ED00060006000600060006000600060006000F2
:102EE000600060006000E003E003000000003000CC
:102EF0003000600060006000C000C000C000C00181
:102F00008001800180010003000300030006000629
:102F10000000000000000000000000000000E003CE
:102F2000E0030003000300030003000300030003A9
:102F30000003000300030003000300030003000379
:102F4000000300030003E003E003000000000000B2
:102F5000C001C00160036003600330063006180C36
:102F6000180C00000000000000000000000000003D
:102F70000000000000000000000000000000000051
:102F80000000000000000000000000000000000041
:102F90000000000000000000000000000000FFFF33
:102FA000FFFF0000000000000000000000000C0017
:102FB0000C000C000C000C000C00000000000000D5
:102FC0000000000000000000000000000000000001
:102FD00000000000000000000000000000000000F1
:102FE0000000000000000000F003F8071C0C0C0CAF
:102FF000000FF00FF80C0C0C0C0C1C0FF80FF01855
:1030000000000000000000000000000000001800A8
:103010001800180018001800D803F80F380C1818FA
:1030200018181818181818181818380CF80FD8038A
:103030000000000000000000000000000000000090
:103040000000000000000000C003F007300E180C64
:103050001800180018001800180C300EF007C003F4
:103060000000000000000000000000000000001848
:103070000018001800180018C01BF01F301C18188A
:1030800018181818181818181818301CF01FC01B1A
:103090000000000000000000000000000000000030
:1030A0000000000000000000C003F00F300C1818F2
:1030B000F81FF81F180018003818301CF00FC00750
:1030C0000000000000000000000000000000800F71
:1030D000C00FC000C000C000F007F007C000C00073
:1030E000C000C000C000C000C000C000C000C000E0
:1030F00000000000000000000000000000000000D0
:103100000000000000000000E00DF80F180E0C0C8D
:103110000C0C0C0C0C0C0C0C0C0C180EF80FE00D1D
:10312000000C0C0C1C06F807F00100000000180051
:103130001800180018001800D807F80F381C1818C5
:1031400018181818181818181818181818181818FF
:103150000000000000000000000000000000C000AF
:10316000C000000000000000C000C000C000C0009F
:10317000C000C000C000C000C000C000C000C0004F
:103180000000000000000000000000000000C0007F
:10319000C000000000000000C000C000C000C0006F
:1031A000C000C000C000C000C000C000C000C0001F
:1031B000C000C000C000F8007800000000000C0053
:1031C0000C000C000C000C000C0C0C060C038C0109
:1031D000CC006C00FC009C018C030C030C060C0C56
:1031E0000000000000000000000000000000C0001F
:1031F000C000C000C000C000C000C000C000C000CF
:10320000C000C000C000C000C000C000C000C000BE
:1032100000000000000000000000000000000000AE
:1032200000000000000000007C3CFF7EC7E383C17B
:1032300083C183C183C183C183C183C183C183C16E
:10324000000000000000000000000000000000007E
:1032500000000000000000009807F80F381C181844
:1032600018181818181818181818181818181818DE
:10327000000000000000000000000000000000004E
:103280000000000000000000C003F00F300C181810
:1032900018181818181818181818300CF00FC00340
:1032A000000000000000000000000000000000001E
:1032B0000000000000000000D803F80F380C1818B8
:1032C00018181818181818181818380CF80FD803E8
:1032D0001800180018001800180000000000000076
:1032E0000000000000000000C01BF01F301C181878
:1032F00018181818181818181818301CF01FC01BA8
:103300000018001800180018001800000000000045
:103310000000000000000000B007F0037000300063
:10332000300030003000300030003000300030001D
:10333000000000000000000000000000000000008D
:103340000000000000000000E003F003380E180C3D
:103350003800F003C007000C180C380EF007E0032B
:10336000000000000000000000000000000000005D
:103370008000C000C000C000F007F007C000C0001F
:10338000C000C000C000C000C000C000C00780076F
:10339000000000000000000000000000000000002D
:1033A000000000000000000018181818181818185D
:1033B00018181818181818181818381CF01FE019C1
:1033C00000000000000000000000000000000000FD
:1033D00000000000000000000C18180C180C180C5D
:1033E000300630063006600360036003C001C00190
:1033F00000000000000000000000000000000000CD
:103400000000000000000000C141C141C3616363CE
:10341000636363633636363636361C1C1C1C1C1C34
:10342000000000000000000000000000000000009C
:1034300000000000000000001C38381C300C600642
:1034400060036003600360036006300C381C1C38A6
:10345000000000000000000000000000000000006C
:1034600000000000000000001830301830187018FC
:10347000600C600CE00CC006C00680038003800373
:1034800080018001C001F000700000000000000019
:103490000000000000000000FC1FFC1F000C0006E4
:1034A00000038001C000600030001800FC1FFC1FFA
:1034B0000000000000000000000000000000000309
:1034C0008001C000C000C000C000C000C00060009B
:1034D0006000300060004000C000C000C000C000BC
:1034E000C000C00080010003000000000000800157
:1034F00080018001800180018001800180018001C4
:1035000080018001800180018001800180018001B3
:1035100080018001800180018001000000006000C6
:10352000C000C00180018001800180018001000392
:10353000000300060003000180018001800180017A
:1035400080018001C0006000000000000000000059
:10355000000000000000000000000000F010F81F54
:10356000080F000000000000000000000000000044
:1035700000000000000000000000000055736520FE
:1035800053544D33322D4C54444320646972656367
:10359000746564206472697665722C004248203537
:1035A0002E3020696E6368204C4344207061726144
:1035B0003A00546F756368207061643A3520706F0B
:1035C000696E7420746F75636820737570706F72A4
:1035D000746564006E6F2065787465726E206C632C
:1035E0006420647269766572206E65656465642C1A
:1035F0005247423838382C3234626974732064611F
:1036000074612062757300496D616765207265732E
:103610006F6C7574696F6E3A38303078343830209A
:1036200070780000483600080000002010000000FC
:10363000201F00085836000810000020102000004D
:10364000301F000800000000FFFF0000AC2300084E
:0836500010001800000000004A
:04000005080001AD41
:00000001FF
